:1000000000800020BD01000001650000B96400000F
:10001000B9640000B9640000B9640000B96400006C
:10002000B9640000B9640000B96400000165000013
:1000300001650000B9640000997C00009D7C00000F
:100040000165000001650000016500000165000018
:100050000165000001650000016500000165000008
:1000600001650000016500000165000001650000F8
:1000700001650000016500000165000001650000E8
:1000800001650000016500000165000001650000D8
:1000900001650000016500000165000001650000C8
:1000A00001650000016500000165000001650000B8
:1000B00001650000016500000165000001650000A8
:1000C0000165000001650000016500000165000098
:1000D0000165000001650000016500000165000088
:1000E0000165000001650000016500000165000078
:1000F0000165000001650000016500000165000068
:100100000165000001650000016500000165000057
:100110000165000001650000016500000165000047
:100120000165000001650000016500000165000037
:100130000165000001650000016500000165000027
:100140000165000001650000016500000165000017
:100150000165000001650000016500000165000007
:10016000495D0000696C0000016500000165000048
:1001700001650000016500000165000001650000E7
:1001800001650000016500000165000001650000D7
:1001900001650000016500000165000001650000C7
:1001A00001650000016500000165000001650000B7
:1001B000016500000165000001650000564B4CF22E
:1001C000205210B51A804DF628121A8000BF00BFC9
:1001D00006F09AF9514B4FF010621A60504A9A603B
:1001E000504ADA60504A136813F4807304D14F49BF
:1001F0000B604FF4A85313604D4B1A78110703D5C9
:100200001A7842F008021A704A4B4B492A221A7097
:100210004A4A4B4B8B4204D252F8040F43F8040B6A
:10022000F8E7484B484900228B4202D243F8042B9E
:10023000FAE74649464A002352F8230041F82300D2
:1002400001336F2BF8D1434B434A802103F8011B44
:100250009342FBD1414B3D4A1A60414B8A221A70AE
:10026000A3F5805324225A70A0221A709A7992071B
:10027000FCD59A79D406FCD43A4A937903F00C035E
:10028000082B384BF9D105221A7143225A719A79F9
:100290009006FCD5334A9179324B4906FBD5324A58
:1002A0004FF0817111600521516020221A709A79F6
:1002B00002F00C020C2AFAD12C4B2D4A1A602D4B5D
:1002C0002D4A1A6000225A60072243F8042C2B4A58
:1002D000C3F80C2D62B606F07DFB144B1B68DA07E1
:1002E00005D5274806F00AFA264B274A1A60274BFD
:1002F0001B785B0609D5234C234B22689A4204D114
:100300001F4806F0FBF90023236009F0B5FE06F054
:1003100001F906F02FF8FEE70E200540308004407A
:10032000823F04000100002B10D0034014D0034092
:1003300002D0074000E00740E491FF1F94B60000A0
:100340002087FF1FE891FF1FAC9BFF1F0082FF1F4C
:100350000000000000E400E05FE400E008ED00E0E1
:1003600000500640004006404480044004800440A1
:10037000C010050014E000E03F190100000020203B
:100380002105B25F1CE00340A5C3945A00F007406A
:10039000FFFFFFFFFFFFFFFFFFFFFFFFFFFFFFFF6D
:1003A000FFFFFFFFFFFFFFFFFFFFFFFFFFFFFFFF5D
:1003B000FFFFFFFFFFFFFFFFFFFFFFFFFFFFFFFF4D
:1003C000FFFFFFFFFFFFFFFFFFFFFFFFFFFFFFFF3D
:1003D000FFFFFFFFFFFFFFFFFFFFFFFFFFFFFFFF2D
:1003E000FFFFFFFFFFFFFFFFFFFFFFFFFFFFFFFF1D
:1003F000FFFFFFFFFFFFFFFFFFFFFFFFFFFFFFFF0D
:10040000FFFFFFFFFFFFFFFFFFFFFFFFDEF9FFFF23
:1004100010B5054C237833B9044B13B10448AFF33E
:1004200000800123237010BDE891FF1F0000000031
:1004300098B60000084B10B51BB108490848AFF347
:1004400000800848036803B910BD074B002BFBD0A0
:10045000BDE81040184700BF00000000EC91FF1FEE
:1004600098B60000E491FF1F0000000043680B7085
:1004700043681B0A4B70C3888B70C379CB70836849
:100480000B7183681B0A4B7143898B71C37ACB71E3
:10049000082070470B7843604A7843EA02234360A0
:1004A0008A7843EA02434360CA7843EA02634360BE
:1004B0000B7983604A7943EA022383608A7943EAAD
:1004C00002438360CA7943EA02638360082070476D
:1004D000004870475CB00000004870476CB00000F6
:1004E000F0B50C460A788280064614F8010F002306
:1004F00042EA0022B2801A4614F8010F98400833ED
:10050000202B42EA0002F7D1971D062F58D901F19E
:10051000050E551D73464C1913F8010F03F8010C15
:10052000A342F9D100234B5518460D44C6F808E004
:1005300015F8014F84400830202843EA0403F7D11E
:10054000381D0344834209D909320A440446013460
:1005500012F8015F02F8015CA342F8D80138CF1805
:100560000024084407F8014C2246F06017F8015BAC
:1005700095400832202A44EA0504F7D1181D0444A6
:10058000A04209D203330B440246013213F8015F43
:1005900003F8015CA242F8D30D1901380844002386
:1005A00005F8013C3061A8786B780A5DED780104AC
:1005B00041EA0323134343EA0563201D7361F0BD41
:1005C000551D01F1050EADE70048704790B00000E1
:1005D00000487047ACB000000B78F0B40371002302
:1005E00006460C461D4614F8012F9A400833202B6E
:1005F00045EA0205F7D1681D052801F1040708D96D
:100600002C1D3B460C4413F8012F03F8012C9C428F
:10061000F9D10D4400232B71B760F0BC704700BFC7
:1006200000487047D0B0000000487047E4B00000B8
:1006300000487047E4B200000048704708B100006D
:1006400043680B701A0C10B41C0A1B0E4C708A7095
:10065000CB7083680B711C0A1A0C1B0E4C718A71CB
:10066000CB71C3680B72180A1A0C1B0E48728A727F
:100670000C20CB7210BC70470B6843604B688360E2
:100680008B68C3600C207047004870472CB1000095
:100690000048704744B100000048704768B100004E
:1006A0000048704780B1000000487047A4B10000C6
:1006B00000487047B8B1000043680B701A0C10B4C2
:1006C0001C0A1B0E4C708A70CB7083680B711C0A5D
:1006D0001A0C1B0E4C718A71CB71C3680B72180A0D
:1006E0001A0C1B0E48728A720C20CB7210BC704719
:1006F0000B6843604B6883608B68C3600C20704755
:1007000000487047DCB1000000487047ECB10000C1
:10071000F0B50A4B0A4F1B680A4D0B498668C4683E
:10072000026A2E6083B00C600193DDF804E0074B91
:10073000C7F800E01A6003B0F0BD00BF3C9AFF1F8D
:100740009892FF1F6899FF1F6C99FF1FBC98FF1FAD
:1007500090F8F804704700BF006A7047004870477F
:10076000DCB1000000487047ECB10000406B7047FE
:1007700000487047A4B1000000487047B8B10000BD
:1007800007F088B843682DE9F0470B7043681B0AEF
:100790004B70C3888B70C379CB704368002B00F01B
:1007A00085800A4600250426C36853F82530137156
:1007B0001C0C1F0A1B0E94715771D37143680135CD
:1007C000AB42344602F1040206F10406ECD804F10F
:1007D000080204F1050A04F1060904F1070804F10E
:1007E000090C04F10A0E04F10B0517460C340369D9
:1007F0008B5503691B0A01F80A30438A01F8093056
:10080000C37C01F808300369F3B101EB070E7546AC
:100810000022836953F822300EF822301C0C1E0A85
:100820001B0EAC706E70EB700369013293423C4654
:1008300005F1040507F10407EBD804F1050C04F1F8
:10084000060EE51D3A460834C3698B54C3691B0A7A
:1008500001F80C30C38B01F80E30C37F4B55C369D0
:100860000BB30F4680460026D8F8243053F82600F4
:1008700009F026FEB10005463A19002325FA03F0D7
:100880000833202B02F8010BF8D1D8F824300434B7
:10089000381959582A4605F075FDD8F81C3001362C
:1008A000B3422C44E0D82046BDE8F0870822174622
:1008B0000C240B254FF00A0E4FF0090C4FF00708DF
:1008C0004FF006094FF0050A042690E770B503794A
:1008D0000B70064680680D4609F0F2FD2A46044674
:1008E000002324FA03F10833202B02F8011FF8D16A
:1008F000B168681D224605F045FD601D70BD00BF52
:10090000F8B583880B7083881B0A4B700646806895
:100910000D4609F0D5FD030E010A020C6B71A8709B
:100920002A71E97002460446B168A81D05F02AFD47
:10093000F06809F0C5FD611D024629440634002314
:1009400022FA03F00833202B01F8010FF8D1043408
:100950002819F168144405F015FD306909F0B0FD5F
:100960002A190746002327FA03F10833202B02F83F
:10097000011BF8D1043428193A46316905F002FD0B
:10098000381973692B540544190A1A0C1B0E697027
:10099000AA70EB700430F8BD084607F065B800BFD8
:1009A0002DE9F04F43680C689C4283B005460E4623
:1009B00000F2B3806C60002C00F0B88005F1080CE8
:1009C000334600274FF0040E9C795A79197993F831
:1009D0000780E868240444EA02220A4342EA0862E3
:1009E000AA60DCF8002040F827206A680137BA4284
:1009F000714603F104030EF1040EE5D801F1080875
:100A000047464B1D881DCA1D01F1090A01F10A0B59
:100A100001F10B0901F10C04305CF35C16F80E10C7
:100A200016F802E02A69000440EA03230B4343EA74
:100A30000E63934200F290802B613BB305F1140CDE
:100A4000F3194FF0000E9C785A78197893F80380C8
:100A5000A869240444EA02220A4342EA08626A615D
:100A6000DCF8002040F82E202A690EF1010E7245B4
:100A70003C4603F1040307F10407E4D804F1050A36
:100A800004F1060B04F10709B846083416F80B20E8
:100A900016F80A0016F8083016F80970E969120409
:100AA00042EA0022134343EA07678F424ED8EF61C0
:100AB0007FB30027BC4605F1200E002319463019EC
:100AC00010F8012B9A400833202B41EA0201F7D19C
:100AD00004F104084144884509D2E31C33444246EA
:100AE000013213F8010F03F8010C8A42F8D372188F
:100AF00008F1FF3802F801CC06EB08032B626A6AA2
:100B0000DEF8003042F82730EB690137BB420C4673
:100B1000D3D8204603B0BDE8F08FA100C06809F02B
:100B2000D3FA6C60E860002C7FF448AF4FF00808FF
:100B300047460C244FF00B094FF00A0B4FF0090AFF
:100B40000722062005234FF0040E65E7B900686A06
:100B500009F0BAFA6862AAE79900A869019309F056
:100B6000B3FA019BA86167E710B504460C48A36877
:100B7000E268616805F0FAFBA368E2686168094809
:100B800005F0F4FBA368E2686168074805F0EEFB36
:100B9000A368E26861680548BDE8104005F0E6BB5F
:100BA000C098FF1F1099FF1FB892FF1F3893FF1FB7
:100BB0000B6803614B6843618B688361C3690C30C8
:100BC000184700BFF8B505468068C0F3C7520C4609
:100BD0000346002A00F0CF8002F56072110149B28D
:100BE000C2F30716C3F3C34211435F010022A17190
:100BF000D910DB12217122706270A270E7706371EC
:100C0000002109F0E5F9002840F0C780E671E868A6
:100C1000C0F3C7520346002A00F0BC8002F56072A0
:100C2000110149B2C2F30716C3F3C34211435F0176
:100C30000022A173D910DB12217322726272A27298
:100C4000E7726373002109F0C3F9002840F0BC800B
:100C5000E6732869C0F3C7520346002A00F0978064
:100C600002F56072110149B2C2F30716C3F3C34221
:100C700011435F010022A175D910DB122175227486
:100C80006274A274E7746375002109F0A1F9002869
:100C900040F09680E675A869C0F3C7520346002A63
:100CA00072D002F56072110149B2C2F30716C3F3A4
:100CB000C34211435F010022A177D910DB122177D3
:100CC00022766276A276E7766377002109F080F9D2
:100CD000002871D1E677E869C0F3C7520346002ABD
:100CE0004FD002F56072110149B2C2F30716C3F387
:100CF000C34211435F01002284F82610D910DB1291
:100D000084F8241084F8202084F8212084F82220FC
:100D100084F8237084F82530002109F059F900285F
:100D200045D184F82760286AC0F3C75203462AB326
:100D300002F56072110149B2C2F30715C3F3C34251
:100D400011435F010022DE10DB1284F82E1084F8BC
:100D5000282084F8292084F82A2084F82B7084F82D
:100D60002C6084F82D30002109F032F9C8B984F8DC
:100D70002F503020F8BD1646114633E71546114670
:100D8000DCE716461146B2E7164611468FE71646CF
:100D900011466BE71646114646E766F07F02E271A0
:100DA00035E765F07F0284F82F203020F8BD66F02B
:100DB0007F0284F82720B6E766F07F02E2778AE7B1
:100DC00066F07F02E27566E766F07F02E27340E755
:100DD000F8B506464068C0F3C7520C460346002AE1
:100DE00058D002F56072110149B2C2F30715C3F37E
:100DF000C34211435F010022A171D910DB1221719E
:100E000022706270A270E7706371002109F0E0F84F
:100E1000002848D1E571B068C0F3C7520346002AE4
:100E20003ED002F56072110149B2C2F30715C3F357
:100E3000C34211435F010022A173D910DB12217359
:100E400022726272A272E7726373002109F0C0F825
:100E500090BBE573F068C0F3C7520346EAB102F5F0
:100E60006072110149B2C2F30715C3F3C3421143C3
:100E70005F010022DE10DB12A17522746274A2747D
:100E8000E77426756375002109F0A2F878B9E57555
:100E90001820F8BD15461146A9E715461146E4E7A6
:100EA00015461146C3E765F07F02E271B3E765F0CE
:100EB0007F02E2751820F8BD65F07F02E273C9E792
:100EC000CA78520970B442610346087942EAC00206
:100ED0005A61487942EAC02058618A79D20402F402
:100EE000F00202435A61CD798E792C0104F4FE643C
:100EF00054EA161403F10C0005D0A4F5607442EA1C
:100F0000C4525A61CD7925F07F0542EA05625A61E3
:100F1000CA7A52099A610C7B42EAC4029A614C7BFC
:100F200042EAC4249C618A7BD20402F4F002224388
:100F30009A61CD7B8E7B2C0104F4FE6454EA161476
:100F400005D0A4F5607442EAC4529A61CD7B25F0C5
:100F50007F0542EA05629A61CA7C5209DA610C7D1A
:100F600042EAC402DA614C7D42EAC424DC618A7D33
:100F7000D20402F4F0022243DA61CD7D8E7D2C0191
:100F800004F4FE6454EA161405D0A4F5607442EA31
:100F9000C452DA61CD7D25F07F0542EA0562DA614F
:100FA000CA7E52095A620C7F42EAC4025A624C7FDE
:100FB00042EAC4245C628A7FD20402F4F002224333
:100FC0005A62CD7F8E7F2C0104F4FE6454EA16141D
:100FD00005D0A4F5607442EAC4525A62CD7F25F070
:100FE0007F0542EA05625A6291F8232052099A620B
:100FF00091F8244042EAC4029A6291F8254042EAFC
:10100000C4249C6291F82620D20402F4F002224308
:101010009A6291F8275091F826602C0104F4FE643E
:1010200054EA161406D0A4F5607442EAC4529A62D7
:1010300091F8275025F07F0542EA05629A6291F8FF
:101040002B205209DA6291F82C4042EAC402DA629B
:1010500091F82D4042EAC424DC6291F82E20D2049B
:1010600002F4F0022243DA6291F82F5091F82E60D8
:101070002C0104F4FE6454EA161406D0A4F560743E
:1010800042EAC452DA6291F82F5025F07F0542EA15
:101090000562DA6270BC1B6B184700BFCB785B0936
:1010A00030B483600A7943EAC20383604A7943EA31
:1010B000C22282608B79DB0403F4F0031343836064
:1010C000CC798D79220102F4FE6252EA151205D024
:1010D000A2F5607243EAC2538360CC7924F07F04A6
:1010E00043EA04638360CB7A5B09C3600A7B43EA0B
:1010F000C203C3604A7B43EAC222C2608B7BDB042B
:1011000003F4F0031343C360CC7B8D7B220102F414
:10111000FE6252EA151205D0A2F5607243EAC2538C
:10112000C360CC7B24F07F0443EA0463C360CB7CC0
:101130005B0903610A7D43EAC20303614A7D43EA16
:10114000C22202618B7DDB0403F4F00313430361CD
:10115000CC7D8D7D220102F4FE6252EA151205D08B
:10116000A2F5607243EAC2530361CC7D24F07F0490
:1011700043EA04630361CB7E5B0983610A7F43EA30
:10118000C20383614A7F43EAC22282618B7FDB0410
:1011900003F4F00313438361CC7F8D7F220102F4BB
:1011A000FE6252EA151205D0A2F5607243EAC253FC
:1011B0008361CC7F24F07F0443EA0463836191F868
:1011C00023305B09C36191F8242043EAC203C36161
:1011D00091F8252043EAC222C26191F82630DB044F
:1011E00003F4F0031343C36191F8274091F82650AC
:1011F000220102F4FE6252EA151206D0A2F56072D4
:1012000043EAC253C36191F8274024F07F0443EAC4
:101210000463C36191F82B305B09036291F82C20C1
:1012200043EAC203036291F82D2043EAC22202621C
:1012300091F82E30DB0403F4F0031343036291F8BA
:101240002F4091F82E50220102F4FE6252EA15124C
:1012500006D0A2F5607243EAC253036291F82F40B0
:1012600024F07F0443EA0463036230BC30207047FB
:10127000CB785B0930B443600A7943EAC203436028
:101280004A7943EAC22242608B79DB0403F4F0031B
:1012900013434360CC798D79220102F4FE6252EA55
:1012A000151205D0A2F5607243EAC2534360CC79AF
:1012B00024F07F0443EA04634360CB7A5B098360D4
:1012C0000A7B43EAC20383604A7B43EAC22282600C
:1012D0008B7BDB0403F4F00313438360CC7B8D7BB7
:1012E000220102F4FE6252EA151205D0A2F56072E4
:1012F00043EAC2538360CC7B24F07F0443EA046357
:101300008360CB7C5B09C3600A7D43EAC203C36090
:101310004A7D43EAC222C2608B7DDB0403F4F00302
:101320001343C360CC7D8D7D220102F4FE6252EA3C
:10133000151205D0A2F5607243EAC253C360CC7D9A
:1013400024F07F0443EA0463C36030BC1820704774
:10135000F0B585B0364A01920368364D03950322F5
:101360008DF808201B6834498B425AD1002338215C
:10137000044680F8232205F1300E80F8241280F80C
:10138000253280F8263280F8273200F50A772E467B
:101390000FCE764538607960BA60FB60354607F15C
:1013A0001007F4D103CD00227960C2234FF0FF0E65
:1013B000FE263D250721386084F8203284F81CE29F
:1013C00084F81D6284F81E5284F81F2284F82222B9
:1013D00084F8211204F2212304F25F2001E013F8C3
:1013E000011F83420A44FAD1D243144E84F860228A
:1013F00004F21B2504F5187703E006F035FBBD4227
:101400000BD0626815F8011F13681B68B3420846C9
:10141000F3D010469847BD42F3D14FF0FF3005B0EE
:10142000F0BD01AA072198474FF0FF3005B0F0BD8D
:1014300090AF000010B20000C9250000990900001B
:101440001F4B10B4DA6D1368506819780478507A1D
:10145000137A044201EA03011AD0937A03F00303DA
:1014600009B143F0040343F008039910013B917262
:101470000D2B0BD8DFE803F01E0719070A141E1EF8
:10148000140A0719071ED368013BD36010BC7047CC
:10149000937A03F003030029E7D043F00403E4E761
:1014A000D36810BC023BD3607047D36810BC0233D2
:1014B000D3607047D36810BC0133D360704700BF5E
:1014C000B499FF1F1F4B10B41A6E13685068197837
:1014D0000478507A137A044201EA03011AD0937A0D
:1014E00003F0030309B143F0040343F00803991028
:1014F000013B91720D2B0BD8DFE803F01E07190793
:101500000A141E1E140A0719071ED368013BD36074
:1015100010BC7047937A03F003030029E7D043F02F
:101520000403E4E7D36810BC023BD3607047D36880
:1015300010BC0233D3607047D36810BC0133D36052
:10154000704700BFB499FF1F1F4B10B45A6E136849
:10155000506819780478507A137A044201EA03013A
:101560001AD0937A03F0030309B143F0040343F064
:1015700008039910013B91720D2B0BD8DFE803F0A3
:101580001E0719070A141E1E140A0719071ED3681E
:10159000013BD36010BC7047937A03F0030300292A
:1015A000E7D043F00403E4E7D36810BC023BD36008
:1015B0007047D36810BC0233D3607047D36810BC47
:1015C0000133D360704700BFB499FF1F1F4B10B4A5
:1015D0009A6E1368506819780478507A137A044226
:1015E00001EA03011AD0937A03F0030309B143F02F
:1015F000040343F008039910013B91720D2B0BD8A3
:10160000DFE803F01E0719070A141E1E140A071943
:10161000071ED368013BD36010BC7047937A03F078
:1016200003030029E7D043F00403E4E7D36810BCC8
:10163000023BD3607047D36810BC0233D36070475D
:10164000D36810BC0133D360704700BFB499FF1F4B
:101650001F4B10B4DA6E1368506819780478507A0A
:10166000137A044201EA03011AD0937A03F00303C8
:1016700009B143F0040343F008039910013B917250
:101680000D2B0BD8DFE803F01E0719070A141E1EE6
:10169000140A0719071ED368013BD36010BC7047BA
:1016A000937A03F003030029E7D043F00403E4E74F
:1016B000D36810BC023BD3607047D36810BC0233C0
:1016C000D3607047D36810BC0133D360704700BF4C
:1016D000B499FF1F1F4B10B41A6F13685068197824
:1016E0000478507A137A044201EA03011AD0937AFB
:1016F00003F0030309B143F0040343F00803991016
:10170000013B91720D2B0BD8DFE803F01E07190780
:101710000A141E1E140A0719071ED368013BD36062
:1017200010BC7047937A03F003030029E7D043F01D
:101730000403E4E7D36810BC023BD3607047D3686E
:1017400010BC0233D3607047D36810BC0133D36040
:10175000704700BFB499FF1F1F4B10B45A6F136836
:10176000506819780478507A137A044201EA030128
:101770001AD0937A03F0030309B143F0040343F052
:1017800008039910013B91720D2B0BD8DFE803F091
:101790001E0719070A141E1E140A0719071ED3680C
:1017A000013BD36010BC7047937A03F00303002918
:1017B000E7D043F00403E4E7D36810BC023BD360F6
:1017C0007047D36810BC0233D3607047D36810BC35
:1017D0000133D360704700BFB499FF1F1F4B10B493
:1017E0009A6F1368506819780478507A137A044213
:1017F00001EA03011AD0937A03F0030309B143F01D
:10180000040343F008039910013B91720D2B0BD890
:10181000DFE803F01E0719070A141E1E140A071931
:10182000071ED368013BD36010BC7047937A03F066
:1018300003030029E7D043F00403E4E7D36810BCB6
:10184000023BD3607047D36810BC0233D36070474B
:10185000D36810BC0133D360704700BFB499FF1F39
:101860001F4B10B4DA6F1368506819780478507AF7
:10187000137A044201EA03011AD0937A03F00303B6
:1018800009B143F0040343F008039910013B91723E
:101890000D2B0BD8DFE803F01E0719070A141E1ED4
:1018A000140A0719071ED368013BD36010BC7047A8
:1018B000937A03F003030029E7D043F00403E4E73D
:1018C000D36810BC023BD3607047D36810BC0233AE
:1018D000D3607047D36810BC0133D360704700BF3A
:1018E000B499FF1F1F4B10B4D3F8802013685068C1
:1018F00019780478507A137A044201EA03011AD065
:10190000937A03F0030309B143F0040343F008039F
:101910009910013B91720D2B0BD8DFE803F01E07E5
:1019200019070A141E1E140A0719071ED368013B63
:10193000D36010BC7047937A03F003030029E7D00B
:1019400043F00403E4E7D36810BC023BD360704764
:10195000D36810BC0233D3607047D36810BC013326
:10196000D3607047B499FF1F1F4B10B4D3F8842085
:101970001368506819780478507A137A044201EA9F
:1019800003011AD0937A03F0030309B143F004036F
:1019900043F008039910013B91720D2B0BD8DFE83F
:1019A00003F01E0719070A141E1E140A0719071E42
:1019B000D368013BD36010BC7047937A03F00303F4
:1019C0000029E7D043F00403E4E7D36810BC023BEE
:1019D000D3607047D36810BC0233D3607047D368BC
:1019E00010BC0133D3607047B499FF1F1F4B10B474
:1019F0001A681368506819780478507A137A044288
:101A000001EA03011AD0937A03F0030309B143F00A
:101A1000040343F008039910013B91720D2B0BD87E
:101A2000DFE803F01E0719070A141E1E140A07191F
:101A3000071ED368013BD36010BC7047937A03F054
:101A400003030029E7D043F00403E4E7D36810BCA4
:101A5000023BD3607047D36810BC0233D360704739
:101A6000D36810BC0133D360704700BFB499FF1F27
:101A70001F4B10B45A681368506819780478507A6C
:101A8000137A044201EA03011AD0937A03F00303A4
:101A900009B143F0040343F008039910013B91722C
:101AA0000D2B0BD8DFE803F01E0719070A141E1EC2
:101AB000140A0719071ED368013BD36010BC704796
:101AC000937A03F003030029E7D043F00403E4E72B
:101AD000D36810BC023BD3607047D36810BC02339C
:101AE000D3607047D36810BC0133D360704700BF28
:101AF000B499FF1F1F4B10B49A6813685068197887
:101B00000478507A137A044201EA03011AD0937AD6
:101B100003F0030309B143F0040343F008039910F1
:101B2000013B91720D2B0BD8DFE803F01E0719075C
:101B30000A141E1E140A0719071ED368013BD3603E
:101B400010BC7047937A03F003030029E7D043F0F9
:101B50000403E4E7D36810BC023BD3607047D3684A
:101B600010BC0233D3607047D36810BC0133D3601C
:101B7000704700BFB499FF1F1F4B10B4DA68136899
:101B8000506819780478507A137A044201EA030104
:101B90001AD0937A03F0030309B143F0040343F02E
:101BA00008039910013B91720D2B0BD8DFE803F06D
:101BB0001E0719070A141E1E140A0719071ED368E8
:101BC000013BD36010BC7047937A03F003030029F4
:101BD000E7D043F00403E4E7D36810BC023BD360D2
:101BE0007047D36810BC0233D3607047D36810BC11
:101BF0000133D360704700BFB499FF1F1F4B10B46F
:101C00001A691368506819780478507A137A044274
:101C100001EA03011AD0937A03F0030309B143F0F8
:101C2000040343F008039910013B91720D2B0BD86C
:101C3000DFE803F01E0719070A141E1E140A07190D
:101C4000071ED368013BD36010BC7047937A03F042
:101C500003030029E7D043F00403E4E7D36810BC92
:101C6000023BD3607047D36810BC0233D360704727
:101C7000D36810BC0133D360704700BFB499FF1F15
:101C80001F4B10B45A691368506819780478507A59
:101C9000137A044201EA03011AD0937A03F0030392
:101CA00009B143F0040343F008039910013B91721A
:101CB0000D2B0BD8DFE803F01E0719070A141E1EB0
:101CC000140A0719071ED368013BD36010BC704784
:101CD000937A03F003030029E7D043F00403E4E719
:101CE000D36810BC023BD3607047D36810BC02338A
:101CF000D3607047D36810BC0133D360704700BF16
:101D0000B499FF1F1F4B10B49A6913685068197873
:101D10000478507A137A044201EA03011AD0937AC4
:101D200003F0030309B143F0040343F008039910DF
:101D3000013B91720D2B0BD8DFE803F01E0719074A
:101D40000A141E1E140A0719071ED368013BD3602C
:101D500010BC7047937A03F003030029E7D043F0E7
:101D60000403E4E7D36810BC023BD3607047D36838
:101D700010BC0233D3607047D36810BC0133D3600A
:101D8000704700BFB499FF1F1F4B10B4DA69136886
:101D9000506819780478507A137A044201EA0301F2
:101DA0001AD0937A03F0030309B143F0040343F01C
:101DB00008039910013B91720D2B0BD8DFE803F05B
:101DC0001E0719070A141E1E140A0719071ED368D6
:101DD000013BD36010BC7047937A03F003030029E2
:101DE000E7D043F00403E4E7D36810BC023BD360C0
:101DF0007047D36810BC0233D3607047D36810BCFF
:101E00000133D360704700BFB499FF1F1F4B10B45C
:101E10001A6A1368506819780478507A137A044261
:101E200001EA03011AD0937A03F0030309B143F0E6
:101E3000040343F008039910013B91720D2B0BD85A
:101E4000DFE803F01E0719070A141E1E140A0719FB
:101E5000071ED368013BD36010BC7047937A03F030
:101E600003030029E7D043F00403E4E7D36810BC80
:101E7000023BD3607047D36810BC0233D360704715
:101E8000D36810BC0133D360704700BFB499FF1F03
:101E90001F4B10B45A6A1368506819780478507A46
:101EA000137A044201EA03011AD0937A03F0030380
:101EB00009B143F0040343F008039910013B917208
:101EC0000D2B0BD8DFE803F01E0719070A141E1E9E
:101ED000140A0719071ED368013BD36010BC704772
:101EE000937A03F003030029E7D043F00403E4E707
:101EF000D36810BC023BD3607047D36810BC023378
:101F0000D3607047D36810BC0133D360704700BF03
:101F1000B499FF1F1F4B10B49A6A13685068197860
:101F20000478507A137A044201EA03011AD0937AB2
:101F300003F0030309B143F0040343F008039910CD
:101F4000013B91720D2B0BD8DFE803F01E07190738
:101F50000A141E1E140A0719071ED368013BD3601A
:101F600010BC7047937A03F003030029E7D043F0D5
:101F70000403E4E7D36810BC023BD3607047D36826
:101F800010BC0233D3607047D36810BC0133D360F8
:101F9000704700BFB499FF1F1F4B10B4DA6A136873
:101FA000506819780478507A137A044201EA0301E0
:101FB0001AD0937A03F0030309B143F0040343F00A
:101FC00008039910013B91720D2B0BD8DFE803F049
:101FD0001E0719070A141E1E140A0719071ED368C4
:101FE000013BD36010BC7047937A03F003030029D0
:101FF000E7D043F00403E4E7D36810BC023BD360AE
:102000007047D36810BC0233D3607047D36810BCEC
:102010000133D360704700BFB499FF1F1F4B10B44A
:102020001A6B1368506819780478507A137A04424E
:1020300001EA03011AD0937A03F0030309B143F0D4
:10204000040343F008039910013B91720D2B0BD848
:10205000DFE803F01E0719070A141E1E140A0719E9
:10206000071ED368013BD36010BC7047937A03F01E
:1020700003030029E7D043F00403E4E7D36810BC6E
:10208000023BD3607047D36810BC0233D360704703
:10209000D36810BC0133D360704700BFB499FF1FF1
:1020A0001F4B10B45A6B1368506819780478507A33
:1020B000137A044201EA03011AD0937A03F003036E
:1020C00009B143F0040343F008039910013B9172F6
:1020D0000D2B0BD8DFE803F01E0719070A141E1E8C
:1020E000140A0719071ED368013BD36010BC704760
:1020F000937A03F003030029E7D043F00403E4E7F5
:10210000D36810BC023BD3607047D36810BC023365
:10211000D3607047D36810BC0133D360704700BFF1
:10212000B499FF1F1F4B10B49A6B1368506819784D
:102130000478507A137A044201EA03011AD0937AA0
:1021400003F0030309B143F0040343F008039910BB
:10215000013B91720D2B0BD8DFE803F01E07190726
:102160000A141E1E140A0719071ED368013BD36008
:1021700010BC7047937A03F003030029E7D043F0C3
:102180000403E4E7D36810BC023BD3607047D36814
:1021900010BC0233D3607047D36810BC0133D360E6
:1021A000704700BFB499FF1F1F4B10B4DA6B136860
:1021B000506819780478507A137A044201EA0301CE
:1021C0001AD0937A03F0030309B143F0040343F0F8
:1021D00008039910013B91720D2B0BD8DFE803F037
:1021E0001E0719070A141E1E140A0719071ED368B2
:1021F000013BD36010BC7047937A03F003030029BE
:10220000E7D043F00403E4E7D36810BC023BD3609B
:102210007047D36810BC0233D3607047D36810BCDA
:102220000133D360704700BFB499FF1F1F4B10B438
:102230001A6C1368506819780478507A137A04423B
:1022400001EA03011AD0937A03F0030309B143F0C2
:10225000040343F008039910013B91720D2B0BD836
:10226000DFE803F01E0719070A141E1E140A0719D7
:10227000071ED368013BD36010BC7047937A03F00C
:1022800003030029E7D043F00403E4E7D36810BC5C
:10229000023BD3607047D36810BC0233D3607047F1
:1022A000D36810BC0133D360704700BFB499FF1FDF
:1022B0001F4B10B45A6C1368506819780478507A20
:1022C000137A044201EA03011AD0937A03F003035C
:1022D00009B143F0040343F008039910013B9172E4
:1022E0000D2B0BD8DFE803F01E0719070A141E1E7A
:1022F000140A0719071ED368013BD36010BC70474E
:10230000937A03F003030029E7D043F00403E4E7E2
:10231000D36810BC023BD3607047D36810BC023353
:10232000D3607047D36810BC0133D360704700BFDF
:10233000B499FF1F1F4B10B49A6C1368506819783A
:102340000478507A137A044201EA03011AD0937A8E
:1023500003F0030309B143F0040343F008039910A9
:10236000013B91720D2B0BD8DFE803F01E07190714
:102370000A141E1E140A0719071ED368013BD360F6
:1023800010BC7047937A03F003030029E7D043F0B1
:102390000403E4E7D36810BC023BD3607047D36802
:1023A00010BC0233D3607047D36810BC0133D360D4
:1023B000704700BFB499FF1F1F4B10B4DA6C13684D
:1023C000506819780478507A137A044201EA0301BC
:1023D0001AD0937A03F0030309B143F0040343F0E6
:1023E00008039910013B91720D2B0BD8DFE803F025
:1023F0001E0719070A141E1E140A0719071ED368A0
:10240000013BD36010BC7047937A03F003030029AB
:10241000E7D043F00403E4E7D36810BC023BD36089
:102420007047D36810BC0233D3607047D36810BCC8
:102430000133D360704700BFB499FF1F1F4B10B426
:102440001A6D1368506819780478507A137A044228
:1024500001EA03011AD0937A03F0030309B143F0B0
:10246000040343F008039910013B91720D2B0BD824
:10247000DFE803F01E0719070A141E1E140A0719C5
:10248000071ED368013BD36010BC7047937A03F0FA
:1024900003030029E7D043F00403E4E7D36810BC4A
:1024A000023BD3607047D36810BC0233D3607047DF
:1024B000D36810BC0133D360704700BFB499FF1FCD
:1024C0001F4B10B45A6D1368506819780478507A0D
:1024D000137A044201EA03011AD0937A03F003034A
:1024E00009B143F0040343F008039910013B9172D2
:1024F0000D2B0BD8DFE803F01E0719070A141E1E68
:10250000140A0719071ED368013BD36010BC70473B
:10251000937A03F003030029E7D043F00403E4E7D0
:10252000D36810BC023BD3607047D36810BC023341
:10253000D3607047D36810BC0133D360704700BFCD
:10254000B499FF1F1F4B10B49A6D13685068197827
:102550000478507A137A044201EA03011AD0937A7C
:1025600003F0030309B143F0040343F00803991097
:10257000013B91720D2B0BD8DFE803F01E07190702
:102580000A141E1E140A0719071ED368013BD360E4
:1025900010BC7047937A03F003030029E7D043F09F
:1025A0000403E4E7D36810BC023BD3607047D368F0
:1025B00010BC0233D3607047D36810BC0133D360C2
:1025C000704700BFB499FF1F2DE9F041632984B023
:1025D00003DD90F8F874002F53D0136805460F46BA
:1025E00010461B6805F223219847C2B2C0F30721A9
:1025F000561885F81E2247F30722F643FF234FF0B3
:10260000FE0EFCB285F82222421C85F8206285F875
:102610001F1285F81C3285F81DE285F821420DDB7A
:1026200000F22221294405F22123002201E013F8BF
:10263000014F99422244FAD1D343DBB22A1800F168
:102640000807B7F5007F82F823321EDC002F05F55E
:10265000077616DD0730DFF81081064405F21B24EB
:1026600003E005F001FAB4420BD06A6814F8011FC8
:1026700013681B6843450846F3D010469847B44298
:10268000F3D1384604B0BDE8F081344A0192344CAD
:102690002B68039403228DF808201B6831498B4274
:1026A00055D10023382185F8232204F1300E85F816
:1026B000241285F8253285F8263285F8273205F56B
:1026C0000A7627460FCF774530607160B260F360BD
:1026D0003C4606F11006F4D103CC00227160C223FF
:1026E0004FF0FF0EFE273D240721306085F8203291
:1026F00085F81CE285F81D7285F81E4285F81F22B8
:1027000085F8222285F8211205F2212305F25F20A7
:1027100001E013F8011F98420A44FAD1D243DFF8CE
:10272000488085F8602205F21B2405F5187603E041
:1027300005F09AF9B4420ED06A6814F8011F1368C4
:102740001B6843450846F3D010469847F2E72846F1
:1027500001AA072198474FF0FF3093E790AF0000A0
:1027600010B20000C925000099090000F8B5044620
:1027700015460E46084602211F4604F0D5F82846A5
:10278000022104F0D1F89F4A276052F83610012345
:1027900001F50070E060237552F83520637502F58D
:1027A000007700204BF680332761A061013BFDD10B
:1027B00091F8003292F8002203F00103D20744BFDF
:1027C00043F00203DBB2A37504F10C07212E00F2E3
:1027D0004983DFE816F03C0333032A03210318037F
:1027E0000F030603FD02F402EB02E202D9028C029F
:1027F00083027A02710268025F0256024D024402AD
:102800003B0232022902200217020E020502FC01DD
:10281000F301EA01E101D70122007B4B7B49C3F8B8
:1028200084700422212003F0EDFE01232377212D63
:1028300000F21683DFE815F09C01920188017E0109
:1028400074016A01600156014C01420138012E01F8
:1028500024011A011001DB00D100C700BD00B30044
:10286000A9009F0095008B00810077006D00630038
:1028700059004F0045003B0030002200624B634985
:10288000C3F884700422212003F0BCFE237F0122C0
:10289000134423772046F8BD5B4B5D49C3F8807035
:1028A0000422202003F0AEFE237F0122F0E7564BE6
:1028B0005849DF6704221F2003F0A4FE237F012272
:1028C000E6E7514B54499F6704221E2003F09AFE0D
:1028D000237F0122DCE74C4B50495F6704221D2017
:1028E00003F090FE237F0122D2E7474B4C491F673C
:1028F00004221C2003F086FE237F0122C8E7424BFE
:102900004849DF6604221B2003F07CFE237F01225E
:10291000BEE73D4B44499F6604221A2003F072FE35
:10292000237F0122B4E7384B40495F660422192017
:1029300003F068FE237F0122AAE7334B3C491F6660
:102940000422182003F05EFE237F0122A0E72E4B15
:102950003849DF650422172003F054FE237F01224B
:1029600096E7294B34499F650422162003F04AFE5E
:10297000237F01228CE7244B30495F650422152018
:1029800003F040FE237F012282E71F4B2C491F6585
:102990000422142003F036FE237F012278E71A4B2D
:1029A0002849DF640422132003F02CFE237F012238
:1029B0006EE7154B24499F640422122003F022FE87
:1029C000237F012264E7104B20495F640422112019
:1029D00003F018FE237F01225AE70B4B1C491F64AA
:1029E0000422102003F00EFE237F012250E7064B45
:1029F0001849DF6304220F2003F004FE237F012225
:102A000046E700BF10B30000B499FF1F691900002A
:102A1000E518000061180000DD17000059170000DC
:102A2000D516000051160000CD1500004915000014
:102A3000C51400004114000045250000C124000019
:102A40003D240000B923000035230000B12200001E
:102A50002D220000A9210000A94BAA499F6304224E
:102A60000E2003F0CFFD237F012211E7A44BA649DE
:102A70005F6304220D2003F0C5FD237F012207E7D9
:102A80009F4BA2491F6304220C2003F0BBFD237F50
:102A90000122FDE69A4B9E49DF6204220B2003F0DF
:102AA000B1FD237F0122F3E6954B9A499F620422F0
:102AB0000A2003F0A7FD237F0122E9E6904B964907
:102AC0005F620422092003F09DFD237F0122DFE6DF
:102AD0008B4B92491F620422082003F093FD237F51
:102AE0000122D5E6864B8E49DF610422072003F0E0
:102AF00089FD237F0122CBE6814B8A499F61042215
:102B0000062003F07FFD237F0122C1E67C4B86492E
:102B10005F610422052003F075FD237F0122B7E6E3
:102B2000774B82491F610422104603F06BFD237F1F
:102B30000122ADE6724B7E49DF600422032003F0E0
:102B400061FD237F0122A3E66D4B7A499F60042239
:102B5000022003F057FD237F012299E6684B764956
:102B60005F600422012003F04DFD237F01228FE6E8
:102B7000634B72491F600422002003F043FD237F52
:102B8000012285E65E4B6E49C3F880700422202046
:102B900003F038FD012349E6594B6A49DF670422F7
:102BA0001F2003F02FFD012340E6554B66499F6728
:102BB00004221E2003F026FD012337E6504B634913
:102BC0005F6704221D2003F01DFD01232EE64C4B00
:102BD0005F491F6704221C2003F014FD012325E632
:102BE000474B5C49DF6604221B2003F00BFD0123E9
:102BF0001CE6434B58499F6604221A2003F002FD4D
:102C0000012313E63E4B55495F660422192003F069
:102C1000F9FC01230AE63A4B51491F6604221820A9
:102C200003F0F0FC012301E6354B4E49DF65042239
:102C3000172003F0E7FC0123F8E5314B4A499F6573
:102C40000422162003F0DEFC0123EFE52C4B47495C
:102C50005F650422152003F0D5FC0123E6E5284B2F
:102C600043491F650422142003F0CCFC0123DDE559
:102C7000234B4049DF640422132003F0C3FC0123EB
:102C8000D4E51F4B3C499F640422122003F0BAFC98
:102C90000123CBE51A4B39495F640422112003F06C
:102CA000B1FC0123C2E5164B35491F6404221020F4
:102CB00003F0A8FC0123B9E5114B3249DF6304227C
:102CC0000F2003F09FFC0123B0E50D4B0D499F63DE
:102CD00004220E2003F096FC0123A7E5084B0A49C5
:102CE0005F6304220D2003F08DFC01239EE5044B5D
:102CF00006491F6304220C2003F084FC012395E5A0
:102D0000B499FF1F25210000A12000001D20000014
:102D1000991F0000151F0000911E00000D1E0000ED
:102D2000891D0000051D0000811C0000FD1B000026
:102D3000791B0000F51A0000711A0000ED1900005F
:102D4000E518000061180000DD17000059170000A9
:102D5000D516000051160000CD15000049150000E1
:102D6000C51400004114000045250000C1240000E6
:102D70003D240000B923000035230000B1220000EB
:102D80002D220000A9210000374B3849DF620422C0
:102D90000B2003F037FC012348E5334B34499F6295
:102DA00004220A2003F02EFC01233FE52E4B31497B
:102DB0005F620422092003F025FC012336E52A4B3B
:102DC0002D491F620422082003F01CFC01232DE57D
:102DD000254B2A49DF610422072003F013FC01235D
:102DE00024E5214B26499F610422062003F00AFCBA
:102DF00001231BE51C4B23495F610422052003F0DE
:102E000001FC012312E5184B1F491F6104221046E3
:102E100003F0F8FB012309E5134B1C49DF60042292
:102E2000032003F0EFFB012300E50F4B18499F60DF
:102E30000422022003F0E6FB0123F7E40A4B1549C4
:102E40005F600422012003F0DDFB0123EEE4064B6A
:102E500011491F600422002003F0D4FB0123E5E4A4
:102E6000002215E50023E1E4B499FF1F991F00003B
:102E7000151F0000911E00000D1E0000891D00009E
:102E8000051D0000811C0000FD1B0000791B0000D7
:102E9000F51A0000711A0000ED1900002DE9F04F3D
:102EA000072193B0C448C54C02F0F4FE5A21C24831
:102EB00002F0F6FE00234FF46142A260C4F8E4344D
:102EC00004F27C42C4F8E834C4F8F034C4F8EC34BA
:102ED00002E00133192B0AD052F8041F0029F8D15F
:102EE00003F59071B64A44F8212064335360B54A23
:102EF000002302E00133192B0AD052F8041F0029E5
:102F0000F8D103F59071B04A44F82120643353603E
:102F1000AE4A002302E00133192B0BD052F8041FF4
:102F20000029F8D1AA4A04EB83017D33C1F81C249F
:102F30009360D460A74B94F8F824DFF8B4A2A64EAF
:102F4000DFF8B09202930192A3F50775019B002B65
:102F500040F0E38033680A93DDF828B0D4F80035F8
:102F600042F6F822C3EB0B03934284BF9DF8043072
:102F700085F8F834D4F8E43433B1D5F804359B45FA
:102F800084BF0023C5F8E434A2693AB133680E93D4
:102F90000E9BCBEB03039A42C0F0D88160680368B4
:102FA0005B694B4554D104F075FC002853DBD4F821
:102FB000F434D4F8E4240344072AC4F8F43400F0C9
:102FC0001B817AB9FF2800F02A8133680D930D9B8D
:102FD00041F28831CBEB03038B42D5D9774B83F891
:102FE000F824B7E7012A00F02281022A00F0738159
:102FF000032A00F07B81042A00F08281052A00F078
:103000008E81062A00F09381082ABDD1734A1A40A6
:1030100000239A42C4F8E434C0F2A281FF2AB3D15B
:10302000D4F8EC34002B00F0F0820A2B00F0A181E0
:10303000062B00F0E1810B2B00F09781BC3355F893
:1030400023000028A0D0036865491B6898479BE7C8
:1030500098470028ABDA94F8F8340193002B3FF43A
:1030600079AFD5F8FC3440F6C412C3EB0B0393429E
:103070007FF66CAFFF21FE275A4B85F81C12082102
:10308000002285F81D7285F81E12F7270A2103F128
:10309000090085F8232285F8242285F8252285F861
:1030A000262285F8272285F8282285F8292285F806
:1030B0002A2285F81F2285F8222285F8207285F8B9
:1030C000211201E013F8011F98420A44FAD1029B31
:1030D000D24384F82B22984603F10F07FF2105E025
:1030E00004F0C2FCB8450BD018F8011F62681368E1
:1030F0001B6853450846F3D010469847B845F3D1AE
:1031000033680993099BE36094F8F8340193019BB9
:10311000C4F8FCB4002B3FF41DAF334E334D0FCE3B
:103120000FC52B46326823F817290126FF210022FC
:10313000A8194FF0120EFE2784F82362E8251726FF
:1031400084F81C12072184F824E284F8252284F8EC
:10315000262284F8272284F81F2284F8222284F869
:103160001D7284F81E6284F8205284F8211201E056
:1031700013F8011F98420A44FAD1029DD24384F801
:103180003A2205F11E06FF2105E004F06DFCB54270
:103190000BD015F8011F626813681B685345084679
:1031A000F3D010469847B542F3D1012003F0C2FB9B
:1031B00013B0BDE8F08F00BF9092FF1F8893FF1FF0
:1031C0006C92FF1F0498FF1F0492FF1FA097FF1F20
:1031D0005499FF1FA495FF1F3C9AFF1FFF0000801A
:1031E000A493FF1FA995FF1F4CB20000B095FF1FCD
:1031F0009909000081070000D5F8F024D5F8E834DB
:10320000A918013B01320877C5F8F024C5F8E83465
:10321000002B7FF4B9AE0823C4F8E434B4E60122ED
:103220000BF11403C5F8E424C5F80435ACE6FE2818
:1032300071D095F8F8240023C5F8E434002A7FF40F
:10324000A3AEFF21FE27654B85F81C12082185F8E7
:103250001D7285F81E12F7270A2185F8232285F8AA
:10326000242285F8252285F8262285F8272285F84C
:10327000282285F8292285F82A2285F81F2285F838
:10328000222203F1090085F8207285F8211201E05D
:1032900013F8011F83420A44FAD1029BD24384F8F7
:1032A0002B221F4603F10F08FF2105E004F0DCFB91
:1032B00047450BD017F8011F626813681B68534518
:1032C0000846F3D0104698474745F3D133680C932E
:1032D0000C9BE36058E600220323C5F8E804C5F818
:1032E000F404C5F8F024C5F8E4344DE6D5F8E83424
:1032F00003EB00200423C5F8E804C5F8E43443E6F2
:10330000374A1A40002A26DBFF2A0CBF0523002378
:10331000C4F8E43438E60223C5F8E43434E606237E
:10332000C5F8EC04C5F8F404C5F8E4342CE6D5F887
:10333000EC34D5F8E82403EB00230721C5F8EC347E
:10334000C5F8E414002A3FF466AF1DE6254B93F858
:10335000F8340193FAE5013A62F0FF020132D3E753
:10336000013A62F0FF02013258E6002385F8F83492
:103370000AE633680F930F9BEA681B483168119186
:103380009B1A296ADFF868E0DFF86880DDF844C03E
:10339000EA69A0FB0307BF094FF47A708E4400FB73
:1033A000173308FB03E303930F4B1049A3FB0C3EB9
:1033B0004FEA9E1E039B013A00FB1EC03A4408FBE5
:1033C0001033CEEB0202081F6B612A6102F02AFF64
:1033D00033681093109BC5F80035D5E5A995FF1FFC
:1033E000FF0000808893FF1FD34D62109C93FF1F46
:1033F00000CA9A3B40420F00EF69D5F810359F4252
:1034000006D9B900D5F8180506F05EFEC5F818050E
:10341000C4F81075002F00F0E680A14A042302F2E0
:10342000145E002792F8221092F821C092F8200032
:10343000090441EA0C2192F823C0014341EA0C61DE
:10344000C4F81415D4F81815DEF8000041F8270068
:10345000D4F810050137B842194602F1040203F10D
:103460000403DFD8059301F10B0301F1090201F117
:103470000808049301F10C0303924746481D01F12B
:10348000060E01F1070C01F10A020693A644059B02
:10349000211823449EF81C0091F81CE01B7FD4F8EF
:1034A0001C15A44400049CF81CC040EA0E200343F1
:1034B00043EA0C638B420AD99900D5F82405079298
:1034C000059306F001FE079A059BC5F82405C4F88C
:1034D0001C35002B00F0E280DFF8D0E1EB19002171
:1034E0009A7F93F81DC0187F120442EA0C2293F8C9
:1034F0001FC0024342EA0C62C4F82025D4F82425F8
:10350000DEF8000042F82100D4F81C2501318A427F
:10351000384603F1040307F10407E1D8431D039380
:10352000C31DB846821D049300F10807039B234482
:103530002244187F049B117FD4F82825A0442344FB
:103540009E46090498F81C309EF81C8041EA002130
:103550000B4343EA0868904507D94FEA8801D5F83C
:10356000300506F0B1FDC5F83005C4F82885B8F17E
:10357000000F34D0DFF838E100210EF5A26C07F11E
:103580001C080023A0441A4618F8010B9840083381
:10359000202B42EA0002F7D1381D024482420AD9A8
:1035A00007F11F0323440746013793F8018003F80E
:1035B000018BBA42F8D8A3184FF000070138DF7624
:1035C0007044D4F83035C4F82C05DCF8000043F81A
:1035D0002100D4F8283501318B421746CFD801237A
:1035E00084F80835D0E40C2306930B2304930923B5
:1035F0004FF008080393042347460A224FF0070CB4
:103600004FF0060E0520059340E72648A0F22A2138
:1036100000F8073CFE2781F81C224FF0080C0A46F0
:1036200081F8243281F8253281F8263281F8273258
:1036300081F8283281F8293281F82A3281F81D7206
:1036400081F81F3281F82232A0F1090EF72781F8A4
:103650001EC20A2182F8207282F82112724601E00D
:1036600012F8011F90420B44FAD10F4FDB43A7F130
:103670000F02029284F82B329046FF2105E004F0FD
:10368000F3F9B84516D018F8011F626813681B6873
:1036900053450846F3D010469847F2E7069F45E7A2
:1036A0008893FF1FB295FF1FB395FF1FA898FF1FB8
:1036B000A493FF1F33680B93D14BCDF804B01A4687
:1036C0000B9BE36093465BF8043F002B00F0BF8048
:1036D00058689A6801680392D3F800908B689847FD
:1036E000DBF80030804658680368DB689847DBF8F1
:1036F0000030039A1E69632E074604DD94F8F834FF
:10370000002B00F0A480C2F30723484684F823224C
:1037100084F8243206F0D4FE0346020A000C4FEA75
:10372000136E494684F8262284F827021A46B548C3
:1037300084F82532039384F828E202F023FE404601
:1037400006F0BEFE039B024603F229202044063306
:10375000002122FA01FE0831202900F801EBF8D1FE
:10376000A94804334146184402EB030802F00AFE5C
:10377000384606F0A5FE08F22322814622440023A3
:1037800029FA03F10833202B02F8011BF8D19E4BD4
:1037900008F10408394603EB08004A4602F0F2FD3E
:1037A00009EB0800071D5FFA87FCC7F3072E04EB3F
:1037B00000080CEB0E010022C943022388F82432D2
:1037C00088F8232288F8252288F8262284F82012F7
:1037D000F1B246F30726FF234FF0FE0884F8226279
:1037E0007E1C84F81EC284F81FE284F81C3284F820
:1037F0001D8284F821120BDB00F22626834B2E4417
:1038000001E013F8011FB3420A44FAD1D343DBB2FB
:10381000E2190837B7F5007F82F8233200F34B81B5
:10382000002F14DD00F22720794E2F1803E004F05A
:103830001BF9BE420BD0626816F8011F13681B68A3
:1038400053450846F3D010469847BE42F3D1714B1A
:103850009B457FF438AF9B465BF8040F002800F0CF
:10386000BF8090E80C0003939268D0F808909047CE
:103870008046DBF800000268D26890470746DBF814
:10388000000002685268904763280646039B04DDE7
:1038900094F8F824002A00F0A380C3F307224846D6
:1038A00084F8233284F8242206F00AFE0346020A32
:1038B000000C4FEA136E494684F8262284F827024A
:1038C0001A46504884F82532039384F828E202F01F
:1038D00059FD404606F0F4FD039B024603F2292001
:1038E00020440633002122FA01FE0831202900F885
:1038F00001EBF8D1444804334146184402EB030875
:1039000002F040FD384606F0DBFD08F22322814636
:103910002244002329FA03F10833202B02F8011B6B
:10392000F8D1394B08F10408394603EB08004A4640
:1039300002F028FD09EB0800071D5FFA87FCC7F3BA
:10394000072E04EB00080CEB0E010022C9430223F2
:1039500088F8243288F8232288F8252288F826223D
:1039600084F82012F1B246F30726FF234FF0FE0839
:1039700084F822627E1C84F81EC284F81FE284F858
:103980001C3284F81D8284F821120BDB00F22626FB
:103990001E4B2E4401E013F8011F9E420A44FAD147
:1039A000D343DBB2E2190837B7F5007F82F8233240
:1039B00034DC002F14DD00F22720154E2F1803E011
:1039C00004F052F8B7420BD0626816F8011F136872
:1039D0001B6853450846F3D010469847B742F3D1C9
:1039E0000D4B9B457FF438AFDDF804B0C4F8FCB450
:1039F0000123C4F800B584F8F834FFF78EBB00BF8C
:103A0000A097FF1FB195FF1FAB95FF1FA995FF1F43
:103A1000A395FF1F0498FF1F6898FF1F4D4F4E4E40
:103A20000FCF0FC60FCF0FC60FCF0FC697E80300FB
:103A300000234FF0030E3827FF2285F823E285F894
:103A400024724FF0FE0E3D2785F8253285F8263288
:103A500085F8273286E80300C22185F81C22072258
:103A6000F01D85F81F3285F82232373E85F81DE2B9
:103A700085F81E7285F8201285F8212201E016F8DB
:103A8000012FB0421344FAD1344EDB4384F8603244
:103A9000A6F14407FF2005E003F0E6FFBE429FD0F9
:103AA00017F8010F626813681B6853450146F3D08D
:103AB00010469847F2E7274F274E0FCF0FC60FCF7C
:103AC0000FC60FCF0FC697E8030000234FF0030E79
:103AD0003827FF2285F823E285F824724FF0FE0E86
:103AE0003D2785F8253285F8263285F8273286E885
:103AF0000300C22185F81C220722F01D85F81F3221
:103B000085F82232373E85F81DE285F81E7285F869
:103B1000201285F8212201E016F8012FB04213444B
:103B2000FAD10E4EDB4384F86032A6F14407FF2041
:103B300006E003F099FFB7423FF489AE17F8010F92
:103B4000626813681B6853450146F2D010469847D7
:103B5000F1E700BF10B20000B095FF1FE895FF1F0E
:103B600038B51849054606F033FA20BB0446164915
:103B7000284606F04BFAB8B91349284605F082FFEB
:103B8000124906F087F8124906F038F9114905F094
:103B900079FF114906F07EF806F042FA01460F4817
:103BA00002F07EF8284638BD074D0C48214602F049
:103BB00077F8284638BD034D0848B42102F070F864
:103BC000284638BDE17AD4BEE17AD43EDB0F49C045
:103BD000E17A543FDB0F4940E02E65429092FF1F8F
:103BE0002DE9F04FDFF8D4A2A14BA24ADAF8001079
:103BF000A14C1B68126893B00EA800919F4902F077
:103C000051FA237F012B40F2CD8172B6A76962B6CB
:103C10009B4E606833680A93DDF828B0994DC0EB7D
:103C20000B0005F0A1FB90A3D3E9002305F03CFDB8
:103C3000CDE90201A068381A05F0A6FBC4F804B06B
:103C40008046A7602068894605F09EFB02460B4629
:103C50004046494605F028FDDDE9022305F024FD34
:103C600005F092FE2B7F012B804640F2D58172B683
:103C7000AF6962B633680993DDF824906868824CB6
:103C8000C0EB090005F070FB77A3D3E9002305F032
:103C90000BFDCDE90201A868381A05F075FBC5F8DF
:103CA0000490CDE90401AF60286805F06DFB024681
:103CB0000B46DDE9040105F0F7FCDDE9022305F020
:103CC000F3FC05F061FE237F012B814640F2DE818B
:103CD00072B6A76962B633680893DDF820B06068F1
:103CE0006A4DC0EB0B0005F03FFB5FA3D3E9002357
:103CF00005F0DAFCCDE90201A068381A05F044FBB2
:103D0000A760CDE90401C4F804B0206805F03CFBCD
:103D100002460B46DDE9040105F0C6FCDDE902239D
:103D200005F0C2FC05F030FE2B7F012B074640F268
:103D3000E58172B6AC6962B6336807936868DDF8EE
:103D40001CB04E4EC0EB0B0005F00EFB46A3D3E9B2
:103D5000002305F0A9FCCDE90201A868201A05F0AE
:103D600013FBAC60CDE90401C5F804B0286805F088
:103D70000BFB02460B46DDE9040105F095FCDDE98D
:103D8000022305F091FC05F0FFFD0446404605F0D6
:103D90002DFF05460E9805F029FF2A4601463C48AE
:103DA00002F05EFA05F0F0FD01463A4802F082F8B2
:103DB000484605F01BFF05460F9805F017FF2A46F9
:103DC0000146354802F04CFA05F0DEFD0146334865
:103DD00002F070F8384605F009FF0546109805F026
:103DE00005FF2A4601462E4802F03AFA05F0CCFDBE
:103DF00001462C4802F05EF8204605F0F7FE054625
:103E0000119805F0F3FE2A460146274802F028FAE9
:103E100005F0BAFD0146254802F04CF83378023B24
:103E2000012B40F2B280019400974B464246314646
:103E30000BA802F097F91E491E4FCC681E4D23684F
:103E40000B981E680C9A0D9B89686860BE42AA6038
:103E5000EB6040F09480632932DD94F8F854002D33
:103E600000F08A802CE000BF00000000004CED4014
:103E70006C99FF1F6899FF1F1893FF1FE892FF1F9F
:103E80003C9AFF1FF098FF1F4C92FF1F6893FF1F83
:103E9000C098FF1FA092FF1F1099FF1F0493FF1FE0
:103EA000B892FF1F7099FF1F3893FF1F4099FF1FA3
:103EB0005499FF1FC92500003C92FF1FBC98FF1FAB
:103EC000060A050C4FEA106E170A84F8230284F8DC
:103ED0002722180C84F8246284F82552160C1D0A37
:103EE000120E84F82B3284F826E21B0E84F8287216
:103EF0004FF0FF0E84F82962FE2784F82A220C2650
:103F000084F82C52002284F82D02F325C8B241F324
:103F1000072184F82E3284F8221284F81CE284F8F7
:103F20001D7284F81E6284F81F2284F8205284F8DF
:103F3000210204F2212304F22E2101E013F8010FE3
:103F400099420244FAD1D243B74E84F82F2204F2A8
:103F50001B2504F22F2703E003F086FDAF420BD0B0
:103F6000626815F8011F13681B68B3420846F3D056
:103F700010469847AF42F3D113B0BDE8F08F2A4600
:103F80002046B04713B0BDE8F08FDAF80000FFF725
:103F9000E7FDCDF800900246434631460BA802F0FB
:103FA000A5F848E772B6E36821691A780878617D58
:103FB000237D084202EA030200F0F180A37D03F0B2
:103FC00003030AB143F0040343F008039A10013BD2
:103FD000A2750D2B3FF61AAE01A252F823F000BFD6
:103FE0002D42000021420000194200002142000041
:103FF0000D3C0000114200002D4200002D42000047
:10400000114200000D3C0000214200001942000056
:10401000214200002D42000072B6EB6829691A782F
:104020000878697D2B7D084202EA030200F0AE8029
:10403000AB7D03F003030AB143F0040343F008032C
:104040009A10013BAA750D2B3FF612AE01A252F851
:1040500023F000BF0942000001420000F9410000C6
:1040600001420000713C0000F141000009420000E3
:1040700009420000F1410000713C000001420000D3
:10408000F9410000014200000942000072B6E368F5
:1040900021691A780878617D237D084202EA0302CB
:1040A00064D0A37D03F003030AB143F0040343F09B
:1040B00008039A10013BA2750D2B3FF60AAE01A230
:1040C00052F823F0E9410000E1410000D94100002D
:1040D000E1410000D33C0000D1410000E941000073
:1040E000E9410000D1410000D33C0000E141000063
:1040F000D9410000E1410000E941000072B6EB68DF
:1041000029691A780878697D2B7D084202EA030242
:1041100034D0AB7D03F00303002A40F08B8043F0E2
:1041200008039A10013BAA750D2B3FF603AE01A2BE
:1041300052F823F0C9410000C1410000B94100001C
:10414000C1410000353D0000B1410000C9410000FF
:10415000C9410000B1410000353D0000C1410000EF
:10416000B9410000C1410000C9410000A37D03F036
:104170000303002A9DD043F004039AE7AB7D03F0CC
:104180000303002ACDD043F00403CAE7AB7D03F05C
:104190000303002A3FF454AF43F0040350E7A37D28
:1041A00003F00303002A3FF411AF43F004030DE7CB
:1041B000AC69023CAC61BEE5AC690234AC61BAE505
:1041C000AC69013CAC61B6E5AC690134AC61B2E507
:1041D000A769023FA7617DE5A7690237A76179E575
:1041E000A769013FA76175E5A7690137A76171E577
:1041F000AF69023FAF613CE5AF690237AF6138E5B7
:10420000AF69013FAF6134E5AF690137AF6130E5B8
:10421000A769023FA761FAE4A7690237A761F6E43C
:10422000A769013FA761F2E499090000A769013776
:10423000A761ECE443F0040371E700BF2DE9F04F00
:10424000C54FC64C3B68226893B00493049B9B1AED
:10425000312B00F2B2813B68C14A0693069B12687B
:104260009B1AB3F5C87F06D3BE48BF49BF4A002397
:1042700003600B6013603B68BD4C0793079ED4F846
:10428000003542F6F822F31A934284BF002384F8E3
:10429000F834D4F8E434B64A33B1D2F804359E4247
:1042A00084BF0023C2F8E434DFF8D082B04DA269A5
:1042B0002AB13B680B930B9B9B1B9A4221D36068EE
:1042C00003685B6943456AD103F0E4FA002869DBBF
:1042D000D4F8F434D4F8E424DFF894E20344072A51
:1042E000C4F8F43449D07AB9FF2800F0B8803B68AC
:1042F0000A930A9B41F288319B1B8B42D7D98EF8D7
:10430000F82413B0BDE8F08F012A00F0B080022A33
:1043100000F00281032A00F00A81042A00F01181D2
:10432000052A00F03381062A00F03881082ABED120
:10433000904A1A4000239A42C4F8E434C0F24981FA
:10434000FF2AB4D1D4F8EC34DFF824A2002B00F01B
:1043500094820A2B00F04681062B00F078810B2B0B
:1043600000F03C81BC3355F8230000289FD003683F
:104370000AF11C011B68984799E7D5F8F024D5F895
:10438000E834A918013B01320877C5F8F024C5F8D4
:10439000E834002B8BD10823C4F8E43487E798472E
:1043A000002895DA94F8F8347148002BA9D0D0F899
:1043B000FC3440F6C412F31A9342A2D9FF23FE2123
:1043C000002280F81C3280F81D12F72308250A21EC
:1043D00080F8203280F8232280F8242280F82522D9
:1043E00080F8262280F8272280F8282280F82922C7
:1043F00080F82A2280F81F2280F8222280F81E529C
:1044000080F8211200F2212300F22A2001E013F8A3
:10441000011F98420A44FAD1DFF86481564DD24315
:1044200084F82B2208F10F09FF2005E003F01CFBA4
:10443000C8450BD018F8010F626813681B68AB42BF
:104440000146F3D010469847C845F3D13B680F9317
:104450000F9BC4F8FC64E36013B0BDE8F08F012249
:1044600006F11403C5F8E424C5F804351FE7FE2857
:1044700000F0888095F8F8240023C5F8E434002A79
:104480007FF415AFFF23FE21082085F81C3285F844
:104490001D12F7230A2185F8203285F823220EF217
:1044A000212385F8242285F8252285F8262285F8FF
:1044B000272285F8282285F8292285F82A2285F8DE
:1044C0001F2285F8222285F81E0285F821120EF29D
:1044D0002A2E01E013F8011F9E450A44FAD1DFF8A5
:1044E000A0A0DFF89490D24384F82B220AF10F0B9E
:1044F000FF2101E01AF8011F626813681B684B4531
:10450000084640F0108203F0AFFADA45F2D13B687A
:104510000993099BE360CAE600220323C5F8E80477
:10452000C5F8F404C5F8F024C5F8E434BFE6D5F8BE
:10453000E83403EB00200423C5F8E804C5F8E434AC
:10454000B5E60C4A1A40002A3EDBFF2A0CBF0523C1
:104550000023C4F8E434AAE63C9AFF1F9C92FF1F94
:104560009892FF1F6899FF1F6C99FF1FBC98FF1F4F
:104570008893FF1FFF000080990900008107000059
:10458000A495FF1F0223C5F8E43490E60623C5F87E
:10459000EC04C5F8F404C5F8E43488E6D5F8EC3446
:1045A000D5F8E82403EB00230721C5F8EC34C5F85F
:1045B000E414002A3FF4EFAE79E6FFF711FB3B6805
:1045C0000593059B236046E6013A62F0FF02013243
:1045D000BBE7013A62F0FF020132B1E6002385F841
:1045E000F83464E63B680C930C9BEA6839680E91DA
:1045F000CE49286ADFF848C3DDF838909B1AA1FB42
:10460000031E4FEA9E1E4FF47A718444C848EA693B
:1046100001FB1E3300FB03CCC44BA3FB093B4FEA59
:104620009B1B013A01FB1B91724400FB11C3CBEBB6
:1046300002020AF114010AF110006B612A6101F013
:10464000F1FD3B680D930D9BC5F800352FE6D5F8BD
:104650001C90D5F81035994507D94FEA8901D5F84E
:10466000180505F031FDC5F81805C4F81095B9F125
:10467000000F00F0F080AF4A042102F2145C4FF00A
:10468000000E92F8223092F8219092F820001B043C
:1046900043EA092392F82390034343EA0963C4F8E9
:1046A0001435D4F81835DCF8000043F82E00D4F89F
:1046B00010350EF1010E7345084602F1040201F1B6
:1046C0000401DED8029100F10B0100F1080B00910A
:1046D00000F10C01D94600F1050E00F1060C00F1C5
:1046E000070A00F1090300F10A020191A4440299AA
:1046F0009CF81CC0A64421449EF81C00097FA244DB
:104700004FEA0C4C9AF81CE04CEA002C4CEA0101F0
:1047100041EA0E6AD4F81C158A450BD94FEA8A0182
:10472000D5F824050392029305F0CEFC039A029B70
:10473000C5F82405C4F81CA5BAF1000F00F0888064
:10474000DFF800E205EB09020021937F92F81DC01B
:10475000107F1B0443EA0C2392F81FC0034343EA73
:104760000C63C4F82035D4F82435DEF8000043F893
:104770002100D4F81C3501318B42484602F1040275
:1047800009F10409E1D8C11DCB46431D821D0091EA
:1047900000F1080923442244187F009B117FD4F8BC
:1047A00028252344A3449E4609049BF81C309EF808
:1047B0001CA041EA00210B4343EA0A6A924507D94B
:1047C0004FEA8A01D5F8300505F07EFCC5F83005C2
:1047D000C4F828A5BAF1000F36D0DFF86CE100224A
:1047E0000EF5A26A944609F11C0B0023A344194656
:1047F0001BF8010B98400833202B41EA0001F7D148
:1048000009F10400014481420BD909F11F0323443B
:10481000814609F1010993F801B003F801BB49454C
:10482000F7D86318013883F81BC07044D4F83035CA
:10483000C4F82C05DAF8000043F82200D4F8283533
:10484000013293428946CED8012384F808352EE5FB
:10485000DDF804909EE70B220C234FF0080B042197
:104860008DE80C00D9460A2209234FF0070A4FF0C1
:10487000060C4FF0050E029138E79B460AF2232101
:104880002D4B0F930FA89146CDF840B0CDF844B012
:10489000FBF7ECFD0146C1F30722C0B28318DB43EE
:1048A0008AF81E02FE258AF820320A204B1C8AF85C
:1048B0001C928AF822B28AF81F228AF81D528AF8BE
:1048C0002102C0F2298201F222255B4655440AF2F8
:1048D000212201E012F8010FAA420344FAD1DB437E
:1048E000DBB2621801F10805B5F5007F82F82332CA
:1048F00010482BDC002D2BDD01F223210F4D00EBA6
:10490000010800F21B2903E003F0AEF8C1451FD0F7
:10491000626819F8011F13681B68AB420846F3D0A0
:1049200010469847F2E710469847EEE5D34D6210DF
:1049300040420F008893FF1F60AF000099090000FC
:1049400000CA9A3BA898FF1FA493FF1FFCF700FD25
:104950003B680893D34D089BE36005F1640755F865
:10496000043F002B00F0DC8058689A6801680092D0
:10497000D3F800B08B6898472B6882465868036864
:10498000DB6898472B68009AD3F81080B8F1630F62
:10499000814604DD94F8F834002B00F0C180C2F3A6
:1049A000072384F8232284F82432584605F088FD32
:1049B00003464FEA136E020A000C594684F825326A
:1049C00084F8262284F827021A4684F828E2B6489A
:1049D000009301F0D7FC504605F072FD009B0246A3
:1049E00003F2292020440633002122FA01FE083177
:1049F000202900F801EBF8D1AC48043351461844A3
:104A000002EB030A01F0BEFC484605F059FD0AF22C
:104A100023228346224400232BFA03F10833202B60
:104A200002F8011BF8D1A14B0AF1040A494603EB35
:104A30000A005A4601F0A6FC0BEB0A0E0EF1040C1C
:104A400004EB0E015FFA8CF9CCF30720002202235D
:104A500009EB000B81F8243281F8232281F825220A
:104A600081F826226FEA0B0B5FFA88F1FF234FF0E3
:104A7000FE0A48F30728BCF1FF3F84F820B284F80F
:104A80001E9284F81F0284F81C3284F81DA284F858
:104A9000211284F8228211DBDFF820826FF408797A
:104AA00008EB09030EF226201844434601E013F8F0
:104AB000011F98420A44FAD1D343DBB204EB0C0243
:104AC0000CF1080CBCF5007F82F823321CDCBCF131
:104AD000000F25DDDFF8E881DFF8E8A10EF2272ED0
:104AE000A8F21B2303EB0E0903E002F0BDFFC14552
:104AF00016D0626818F8011F13681B6853450846F2
:104B0000F3D010469847F2E70321694A694B0F92A8
:104B10008DF84010684811930FAA0721FDF754FD46
:104B2000BD427FF41CAF57F8040F002800F0E78067
:104B300090E828009B68D0F808909847834638682A
:104B40000368DB6898478246386803685B68984763
:104B50006328804604DD94F8F834002B00F0CF8001
:104B6000C5F30723484684F8235284F8243205F01D
:104B7000A7FC05462B0E020A000C494684F8283291
:104B800084F8262284F827022A4684F825524648CB
:104B900001F0F8FB584605F093FC05F22921024686
:104BA000214405F10609002322FA03F00833202BE3
:104BB00001F8010BF8D13D4B09F1040903EB0900A1
:104BC0005946914401F0DEFB504605F079FC09F2AC
:104BD000232205462244002325FA03F10833202B23
:104BE00002F8011BF8D1314B09F10409514603EBDE
:104BF00009002A464D4401F0C5FB05F1040E611978
:104C00005FFA8EF9CEF3072C0022022309EB0C0089
:104C100081F8243281F8232281F8252281F8262286
:104C2000C0435FFA88F1FF234FF0FE0A48F30728DC
:104C3000BEF1FF3F84F8200284F81E9284F81FC260
:104C400084F81C3284F81DA284F8211284F8228290
:104C500011DBDFF868C06FF408780CEB080305F28D
:104C600026201844634601E013F8011F98420A44C5
:104C7000FAD1D343DBB204EB0E020EF1080EBEF5FF
:104C8000007F82F823322EDCBEF1000F37DDDFF823
:104C90003080DFF8309005F22725A8F21B231D4451
:104CA00016E000BFA097FF1FB195FF1FAB95FF1F38
:104CB00090AF000010B200008893FF1FA995FF1F5E
:104CC000A395FF1F9909000002F0CEFE454516D0BE
:104CD000626818F8011F13681B684B450846F3D03B
:104CE00010469847F2E703210C4A0D4B0F928DF8BE
:104CF00040100C4811930FAA0721FDF765FC0A4BE1
:104D0000BB427FF410AF0123C4F8FC64C4F8006513
:104D100084F8F834FFF7F5BA4B46E2E590AF0000AF
:104D200010B200008893FF1F6898FF1F2DE9F04F15
:104D30008DB0D04AD04B06920022044600F583661F
:104D400000F27C45ADF81C200B92089309930A935E
:104D500056F8043F002B00F0D28058681F680168A5
:104D60009A6808978B68ADF81C20984733680990BB
:104D700058680368DB689847236831680A904FF4E5
:104D800000721B68D1F810800B92BC4A9342824695
:104D900040F0B581B8F1630F04DD94F8F834002BCE
:104DA00000F0AD80BDF81C30DDF8209084F823328F
:104DB0001B0A84F82432484605F082FB07463B0E66
:104DC0003A0C000A494684F8283284F8257284F89F
:104DD000260284F8272204F229203A4601F0D2FA6A
:104DE000DDF824B0584605F06BFB04F22329791D49
:104DF000024606374944002322FA03F00833202BE9
:104E000001F8010FF8D10437594609EB07001744A0
:104E100001F0B8FA504605F053FB09EB0702834650
:104E200000232BFA03F10833202B02F8011BF8D1E1
:104E30000437514609EB07005A4601F0A3FA0BEB81
:104E4000070E0EF104075FFA87FAC7F3072C09EB88
:104E50000E010AEB0C000022C0434FF0020B09F8D0
:104E60000E20FF238A70CA7081F801B04FF0FE094E
:104E70005FFA88F184F8200248F30728781C84F848
:104E80001EA284F81FC284F81C3284F81D9284F894
:104E9000211284F82282C0F20A820EF226202044D7
:104EA00004F2212301E013F8011F98420A44FAD1C9
:104EB000D243D2B2E11907F10803B3F5007F81F8BC
:104EC000232200F32481002B04F5077717DD0EF170
:104ED0000B0EDFF8AC91774404F21B2803E002F0DC
:104EE000C3FD47450BD0626818F8011F13681B68A3
:104EF0004B450846F3D0104698474745F3D1B54295
:104F00007FF426AFDFF8749104F59C6855F8040F20
:104F1000002800F0E3808168036842680891ADF8DA
:104F20001C209B6898472B6809901A681846D3681C
:104F300098472B6821680A901A680E6852684FF4E7
:104F4000007118460B9190474E45074640F0CF80C0
:104F5000632804DD94F8F834002B00F0BF80BDF81E
:104F60001C30089E84F823321B0A84F82432304611
:104F700005F0A6FA82464FEA1A634FEA1A42000A7F
:104F8000314684F8283284F825A284F8260284F871
:104F9000272204F22920524601F0F4F909990191DF
:104FA000084605F08DFA04F223260AF1050201995C
:104FB00083460AF1060A324400232BFA03F0083331
:104FC000202B02F8010FF8D10AF1040A5A4606EB29
:104FD0000A0001F0D7F90A990191084605F070FA24
:104FE000D3440199824606EB0B0200232AFA03F010
:104FF0000833202B02F8010BF8D10BF1040B06EB60
:105000000B00524601F0BEF90AEB0B020B9BB354A6
:10501000111D16445FFA81FCC1F3072E4FEA132BD2
:105020004FEA134A0CEB0E001B0E86F801B086F80F
:1050300002A0F370C043FEB24FF0FF0B4FF0FE0A28
:1050400047F307274B1C84F8200284F81EC284F81B
:105050001FE284F81CB284F81DA284F8216284F84F
:10506000227218DB02F22627274404F221230020B3
:105070000AE000BF78AF000048B20000C925000078
:105080009909000013F8016FBB423044FAD16FEA6E
:10509000000B5FFA8BFB63180831B1F5007F83F8D2
:1050A00023B200F3A080002904F5077716DD0B3248
:1050B000DFF820A2174404F21B2603E002F0D4FC20
:1050C000BE420BD0626816F8011F13681B68534577
:1050D0000846F3D010469847BE42F3D1A8457FF466
:1050E00015AF012384F8F8340DB0BDE8F08F014608
:1050F00006AA2046B047A8457FF408AFF1E741462D
:1051000006AA20469847B5427FF422AEFAE66E49D9
:10511000039103226D49236805918DF810201B68C7
:105120006B498B4240F0CA80684F84F823220023E9
:10513000382207F1300884F8242284F8253284F8D4
:10514000263284F8273204F50A7EBC46BCE80F00FC
:10515000C445CEF80000CEF80410CEF80820CEF8F2
:105160000C3067460EF1100EEFD103CF0022CEF8BF
:105170000000CEF804103D20C2234FF0FF0CFE27A4
:10518000072184F81E0284F8203284F81CC284F8B7
:105190001D7284F81F2284F8222284F8211204F25E
:1051A000212304F25F2001E013F8011F98420A4412
:1051B000FAD1D243DFF81C9184F8602204F21B2755
:1051C00004F5187804E002F04FFC47453FF497AE31
:1051D000626817F8011F13681B684B450846F2D038
:1051E00010469847F1E7384903910322236837496D
:1051F00005918DF810201B684B455AD1002384F887
:10520000232238220E4601F1300C84F8242284F83F
:10521000253284F8263284F8273204F50A77B64618
:10522000BEE80F00E64538607960BA60FB607646FC
:1052300007F11007F3D103CE0022386079603D20DA
:10524000C2234FF0FF0EFE26072184F81E0284F8C9
:10525000203284F81CE284F81D6284F81F2284F84E
:10526000222284F8211204F2212304F25F2001E0BB
:1052700013F8011F98420A44FAD1D243DFF854A030
:1052800084F8602204F21B2604F5187704E002F08B
:10529000EBFBBE423FF422AF626816F8011F1368B1
:1052A0001B6853450846F2D010469847F1E71A4666
:1052B00000E603AA0721204698470FE703AA072123
:1052C000204698471BE600BF90AF000010B20000D8
:1052D000C9250000990900002DE9F04FC74E93B091
:1052E00033680693069DD0F8003542F6F822EB1A93
:1052F000934284BF002380F8F834D0F8E4340446A5
:1053000033B1D0F80435AB423CBF0023C0F8E434DD
:10531000BB4FDFF8FCB2A26932B133680793079B39
:105320005B1B9A42C0F02481606803685B69BB42E2
:1053300066D102F0AFFA002865DBD4F8F434D4F873
:10534000E4240344072AC4F8F43447D082B9FF2880
:1053500069D033680893089B41F288315B1B8B420C
:10536000D9D984F8F8246FF0010013B0BDE8F08FAC
:10537000012A60D0022A00F0BF80032A00F0C78013
:10538000042A00F0CE80052A00F0DB80062A00F017
:10539000E080082ABFD19B4A1A4000239A42C4F8F1
:1053A000E434C0F26081FF2AB5D1D4F8EC34002B8C
:1053B00000F092820A2B00F05C82062B00F05C81E8
:1053C0000B2B00F05581BC3354F823000028A2D0E9
:1053D000036804F11C011B6898479CE7D4F8F0347B
:1053E000E2180133C4F8F0341077D4F8E834013B04
:1053F000C4F8E834002B8ED10823C4F8E4348AE7DB
:105400009847002899DA94F8F8040028ADD0D4F829
:10541000FC3440F6C412EB1A934200F2AE80002036
:1054200013B0BDE8F08F012205F11403C4F8E424A1
:10543000C4F804356FE7FE287FD094F8F8240023E1
:10544000C4F8E434002A7FF466AF6F4923680F91F3
:105450001B686E4910928B42119240F0FF80FF2131
:105460000820F7234FF0FE0E84F81C120A2184F85E
:105470001E0284F8203284F8232284F8242284F83F
:10548000252284F8262284F8272284F8282284F80A
:10549000292284F82A2284F81F2284F8222284F800
:1054A0001DE284F8211204F2212304F22A2001E0F3
:1054B00013F8011F98420A44FAD1D243DFF85491FD
:1054C00084F82B2204F21B2804F22B2A03E002F0BA
:1054D000CBFAC2450BD0626818F8011F13681B682D
:1054E0004B450846F3D010469847C245F3D1336880
:1054F0000993099BE3600EE700220323C4F8E80444
:10550000C4F8F404C4F8F024C4F8E43403E7D4F88D
:10551000E83403EB00200423C4F8E804C4F8E434BE
:10552000F9E6384A1A40002AC0F28580FF2A0CBFEB
:1055300005230023C4F8E434EDE60223C4F8E43480
:10554000E9E60623C4F8EC04C4F8F404C4F8E4342F
:10555000E1E6D4F8EC34D4F8E82403EB0023072187
:10556000C4F8EC34C4F8E414002A3FF445AFD2E6A2
:105570006FF0010013B0BDE8F08F234A23680F924B
:105580001B68224900228B421092119258D1FF21B0
:105590000820F723FE2784F81C120A2184F81E0233
:1055A00084F8203284F8232284F8242284F82522E7
:1055B00084F8262284F8272284F8282284F82922D5
:1055C00084F82A2284F81F2284F8222284F81D728B
:1055D00084F8211204F2212304F22A2001E013F8B6
:1055E000011F98420A44FAD1D243DFF8288084F898
:1055F0002B2204F21B2704F22B2911E03C9AFF1FF7
:1056000081070000FF00008060AF0000C925000096
:1056100040420F009909000002F026FAB94513D064
:10562000626817F8011F13681B6843450846F3D0EA
:1056300010469847F2E7013A62F0FF02013275E73F
:105640000FAA0A212046984733680B930B9BC4F896
:10565000FC540020E36013B0BDE8F08F0FAA0A21CC
:105660002046984743E7013A62F0FF0201329AE68A
:10567000002384F8F8344EE6D4F81C90D4F81035A2
:10568000994504F11C0807D94FEA8901D4F8180597
:1056900004F01AFDC4F81805C4F81095B9F1000F0C
:1056A00000F0358104F2145C424604214FF0000EF4
:1056B000937992F8059010791B0443EA092392F834
:1056C0000790034343EA0963C4F81435D4F8183546
:1056D000DCF8000043F82E00D4F810350EF1010E6E
:1056E0007345084602F1040201F10401E0D8039178
:1056F00000F10B0100F1090200F10803029100F131
:105700000C010192994600F1050E00F1060C00F122
:10571000070A00F10A02049118F80C00039918F81E
:105720000EE018F801C018F80AA0D4F81C150004FF
:1057300040EA0E2040EA0C0C4CEA0A6A8A450BD972
:105740004FEA8A01D4F824050592039304F0BCFCC7
:10575000059A039BC4F82405C4F81CA5BAF1000FF0
:1057600000F0D28004F5A46E08EB090200219378C2
:1057700092F801C010781B0443EA0C2392F803C08E
:10578000034343EA0C63C4F82035D4F82435DEF82B
:10579000000043F82100D4F81C3501318B42484603
:1057A00002F1040209F10409E1D8421DC11D4B4672
:1057B00001920291821D00F1080918F80200019A75
:1057C00018F8033018F80210029A000418F802A022
:1057D000D4F8282540EA01210B4343EA0A6A92459E
:1057E00007D94FEA8A01D4F8300504F06DFCC4F8FB
:1057F0003005C4F828A5BAF1000F36D000218E4636
:1058000004F22C5000231A4608EB090A1AF801CBBF
:105810000CFA03FC0833202B42EA0C02F6D109F102
:10582000040C624494450BD209F103034344E1465E
:1058300009F1010913F801AF03F801AC9145F7D361
:1058400008EB02030CF1FF3C03F801ECC444D4F86C
:105850003035C4F82CC5D0F800C043F821C0D4F8C6
:10586000283501318B429146CCD8012384F8083584
:1058700051E533680C930C9BE2682E48D4F820C0A5
:1058800031680E919A1AA0FB02E02B4BDDF83880AC
:10589000E1694FF47A7E80090EFB102263440BFB12
:1058A0000232244BA3FB083C4FEA9C1C01390844FC
:1058B0000EFB1C8321460BFB1323CCEB0002226161
:1058C00004F1100041F8143F00F0ACFC33680D9374
:1058D0000D9BC4F800351EE5226818490F911093FE
:1058E00011930A21136820460FAA984733680A9338
:1058F0000A9BE3602046FFF719FAC4F8FC54C4F889
:1059000000554FF0FF3030E5DDF8109055E70C22E0
:1059100009210823049201910B2204210292994645
:105920000A224FF0070A4FF0060C4FF0050E0391C4
:10593000F2E600BFD34D621000CA9A3B60AF000090
:10594000F0B54FF4805383B00C220B216848694DA9
:10595000FCF70CFF4FF480530F220E216648FCF732
:1059600005FF4FF48053102211216448FCF7FEFE1E
:105970004FF480530A2209216148FCF7F7FE614881
:1059800000F008F9012300931522142300215E483A
:1059900000F050FA002108230C460093052206234C
:1059A0005A4800F047FA2146172316220094584817
:1059B00000F040FA03234FF07E5621460093042264
:1059C0000223544800F036FA01950096524B534A90
:1059D0005349544800F03AFC019500964E4B4F4A0B
:1059E0004F49514800F032FC019500964A4B4B4A12
:1059F0004B494E4800F02AFC01950096464B474A19
:105A000047494B4800F022FC019600952146494D3C
:105A1000494B4A484A4E322200F09AFA494B4A48CA
:105A2000C5F80C354FF46142AA6085F8F844C5F812
:105A30001045C5F81845C5F81C45C5F82445C5F8F6
:105A40002845C5F8304521462E60686005F583621B
:105A500005F27C4342F8041F9342FBD13B490022EC
:105A600043F8042F8B42FBD1394A002102F5007321
:105A700002F8011F9A42FBD13648002103F8011FAA
:105A800098424FF00002F9D1334B344FAA613449A8
:105A9000344D3548DF601963344F9D600021012586
:105AA000DFF8E8E0C3F800E01F611F625D63304F7C
:105AB00059619961D96159629962D9622D4B2E4C15
:105AC0002E4EDFF8CCE0056207602D4D2D4FC361EF
:105AD0002D4B016141618161C0F80CE0876061601C
